{
  "_format": "hh-sol-artifact-1",
  "contractName": "Transactions",
  "sourceName": "contracts/Transactions.sol",
  "abi": [
    {
      "anonymous": false,
      "inputs": [
        {
          "indexed": false,
          "internalType": "address",
          "name": "from",
          "type": "address"
        },
        {
          "indexed": false,
          "internalType": "address",
          "name": "receiver",
          "type": "address"
        },
        {
          "indexed": false,
          "internalType": "uint256",
          "name": "amount",
          "type": "uint256"
        },
        {
          "indexed": false,
          "internalType": "string",
          "name": "message",
          "type": "string"
        },
        {
          "indexed": false,
          "internalType": "uint256",
          "name": "timestamp",
          "type": "uint256"
        },
        {
          "indexed": false,
          "internalType": "string",
          "name": "keyword",
          "type": "string"
        }
      ],
      "name": "Transfer",
      "type": "event"
    },
    {
      "inputs": [
        {
          "internalType": "address payable",
          "name": "receiver",
          "type": "address"
        },
        {
          "internalType": "uint256",
          "name": "amount",
          "type": "uint256"
        },
        {
          "internalType": "string",
          "name": "message",
          "type": "string"
        },
        {
          "internalType": "string",
          "name": "keyword",
          "type": "string"
        }
      ],
      "name": "addtoBlockchain",
      "outputs": [],
      "stateMutability": "nonpayable",
      "type": "function"
    },
    {
      "inputs": [],
      "name": "getAllTransactions",
      "outputs": [
        {
          "components": [
            {
              "internalType": "address",
              "name": "sender",
              "type": "address"
            },
            {
              "internalType": "address",
              "name": "receiver",
              "type": "address"
            },
            {
              "internalType": "uint256",
              "name": "amount",
              "type": "uint256"
            },
            {
              "internalType": "string",
              "name": "message",
              "type": "string"
            },
            {
              "internalType": "uint256",
              "name": "timestamp",
              "type": "uint256"
            },
            {
              "internalType": "string",
              "name": "keyword",
              "type": "string"
            }
          ],
          "internalType": "struct Transactions.TransferStruct[]",
          "name": "",
          "type": "tuple[]"
        }
      ],
      "stateMutability": "view",
      "type": "function"
    },
    {
      "inputs": [],
      "name": "getTransactionCount",
      "outputs": [
        {
          "internalType": "uint256",
          "name": "",
          "type": "uint256"
        }
      ],
      "stateMutability": "view",
      "type": "function"
    }
  ],
  "bytecode": "0x608060405234801561001057600080fd5b50610c75806100206000396000f3fe608060405234801561001057600080fd5b50600436106100415760003560e01c80631ab324f51461004657806327506f53146100625780632e7700f014610080575b600080fd5b610060600480360381019061005b919061073d565b61009e565b005b61006a610260565b60405161007791906109e6565b60405180910390f35b6100886104a3565b6040516100959190610a17565b60405180910390f35b60016000808282546100b09190610a61565b9250508190555060016040518060c001604052803373ffffffffffffffffffffffffffffffffffffffff1681526020018673ffffffffffffffffffffffffffffffffffffffff16815260200185815260200184815260200142815260200183815250908060018154018082558091505060019003906000526020600020906006020160009091909190915060008201518160000160006101000a81548173ffffffffffffffffffffffffffffffffffffffff021916908373ffffffffffffffffffffffffffffffffffffffff16021790555060208201518160010160006101000a81548173ffffffffffffffffffffffffffffffffffffffff021916908373ffffffffffffffffffffffffffffffffffffffff1602179055506040820151816002015560608201518160030190805190602001906101ef9291906104ac565b506080820151816004015560a08201518160050190805190602001906102169291906104ac565b5050507f416cfa4330a4565f45c2fd2dd4826a83a37443aba2ce6f79477c7355afac35fa33858585428660405161025296959493929190610b6f565b60405180910390a150505050565b60606001805480602002602001604051908101604052809291908181526020016000905b8282101561049a57838290600052602060002090600602016040518060c00160405290816000820160009054906101000a900473ffffffffffffffffffffffffffffffffffffffff1673ffffffffffffffffffffffffffffffffffffffff1673ffffffffffffffffffffffffffffffffffffffff1681526020016001820160009054906101000a900473ffffffffffffffffffffffffffffffffffffffff1673ffffffffffffffffffffffffffffffffffffffff1673ffffffffffffffffffffffffffffffffffffffff1681526020016002820154815260200160038201805461036d90610c0d565b80601f016020809104026020016040519081016040528092919081815260200182805461039990610c0d565b80156103e65780601f106103bb576101008083540402835291602001916103e6565b820191906000526020600020905b8154815290600101906020018083116103c957829003601f168201915b505050505081526020016004820154815260200160058201805461040990610c0d565b80601f016020809104026020016040519081016040528092919081815260200182805461043590610c0d565b80156104825780601f1061045757610100808354040283529160200191610482565b820191906000526020600020905b81548152906001019060200180831161046557829003601f168201915b50505050508152505081526020019060010190610284565b50505050905090565b60008054905090565b8280546104b890610c0d565b90600052602060002090601f0160209004810192826104da5760008555610521565b82601f106104f357805160ff1916838001178555610521565b82800160010185558215610521579182015b82811115610520578251825591602001919060010190610505565b5b50905061052e9190610532565b5090565b5b8082111561054b576000816000905550600101610533565b5090565b6000604051905090565b600080fd5b600080fd5b600073ffffffffffffffffffffffffffffffffffffffff82169050919050565b600061058e82610563565b9050919050565b61059e81610583565b81146105a957600080fd5b50565b6000813590506105bb81610595565b92915050565b6000819050919050565b6105d4816105c1565b81146105df57600080fd5b50565b6000813590506105f1816105cb565b92915050565b600080fd5b600080fd5b6000601f19601f8301169050919050565b7f4e487b7100000000000000000000000000000000000000000000000000000000600052604160045260246000fd5b61064a82610601565b810181811067ffffffffffffffff8211171561066957610668610612565b5b80604052505050565b600061067c61054f565b90506106888282610641565b919050565b600067ffffffffffffffff8211156106a8576106a7610612565b5b6106b182610601565b9050602081019050919050565b82818337600083830152505050565b60006106e06106db8461068d565b610672565b9050828152602081018484840111156106fc576106fb6105fc565b5b6107078482856106be565b509392505050565b600082601f830112610724576107236105f7565b5b81356107348482602086016106cd565b91505092915050565b6000806000806080858703121561075757610756610559565b5b6000610765878288016105ac565b9450506020610776878288016105e2565b935050604085013567ffffffffffffffff8111156107975761079661055e565b5b6107a38782880161070f565b925050606085013567ffffffffffffffff8111156107c4576107c361055e565b5b6107d08782880161070f565b91505092959194509250565b600081519050919050565b600082825260208201905092915050565b6000819050602082019050919050565b600061081382610563565b9050919050565b61082381610808565b82525050565b610832816105c1565b82525050565b600081519050919050565b600082825260208201905092915050565b60005b83811015610872578082015181840152602081019050610857565b83811115610881576000848401525b50505050565b600061089282610838565b61089c8185610843565b93506108ac818560208601610854565b6108b581610601565b840191505092915050565b600060c0830160008301516108d8600086018261081a565b5060208301516108eb602086018261081a565b5060408301516108fe6040860182610829565b50606083015184820360608601526109168282610887565b915050608083015161092b6080860182610829565b5060a083015184820360a08601526109438282610887565b9150508091505092915050565b600061095c83836108c0565b905092915050565b6000602082019050919050565b600061097c826107dc565b61098681856107e7565b935083602082028501610998856107f8565b8060005b858110156109d457848403895281516109b58582610950565b94506109c083610964565b925060208a0199505060018101905061099c565b50829750879550505050505092915050565b60006020820190508181036000830152610a008184610971565b905092915050565b610a11816105c1565b82525050565b6000602082019050610a2c6000830184610a08565b92915050565b7f4e487b7100000000000000000000000000000000000000000000000000000000600052601160045260246000fd5b6000610a6c826105c1565b9150610a77836105c1565b9250827fffffffffffffffffffffffffffffffffffffffffffffffffffffffffffffffff03821115610aac57610aab610a32565b5b828201905092915050565b610ac081610808565b82525050565b6000819050919050565b6000610aeb610ae6610ae184610563565b610ac6565b610563565b9050919050565b6000610afd82610ad0565b9050919050565b6000610b0f82610af2565b9050919050565b610b1f81610b04565b82525050565b600082825260208201905092915050565b6000610b4182610838565b610b4b8185610b25565b9350610b5b818560208601610854565b610b6481610601565b840191505092915050565b600060c082019050610b846000830189610ab7565b610b916020830188610b16565b610b9e6040830187610a08565b8181036060830152610bb08186610b36565b9050610bbf6080830185610a08565b81810360a0830152610bd18184610b36565b9050979650505050505050565b7f4e487b7100000000000000000000000000000000000000000000000000000000600052602260045260246000fd5b60006002820490506001821680610c2557607f821691505b60208210811415610c3957610c38610bde565b5b5091905056fea264697066735822122051236f62c86805ba82c8a0ea8de6ee755ce7fdc06b89aa63c7d2e94c857609fd64736f6c63430008090033",
  "linkReferences": {},
  "deployedLinkReferences": {}
}